:020000040800F2
:10000000000002209D9E0008ED9E0008DD9C000877
:10001000E99C0008F59C0008ED9E00080000000027
:10002000000000000000000000000000ED9E00083D
:10003000ED9E000800000000ED9E000821AF0008C2
:10004000ED9E0008ED9E0008ED9E0008ED9E000864
:10005000ED9E0008ED9E000885A30008A5A30008FA
:10006000C5A30008E5A30008ED9E0008ED9E00086A
:10007000ED9E0008ED9E0008ED9E0008ED9E000834
:10008000ED9E0008ED9E0008ED9E0008ED9E000824
:10009000ED9E0008ED9E0008ED9E0008ED9E000814
:1000A000ED9E0008ED9E0008ED9E0008ED9E000804
:1000B000ED9E0008ED9E0008ED9E0008ED9E0008F4
:1000C000ED9E0008ED9E0008ED9E0008ED9E0008E4
:1000D000ED9E0008ED9E0008ED9E0008ED9E0008D4
:1000E000ED9E0008ED9E000800000000ED9E000857
:1000F000ED9E0008ED9E0008ED9E0008ED9E0008B4
:10010000ED9E0008ED9E0008ED9E0008ED9E0008A3
:10011000ED9E0008ED9E0008ED9E0008ED9E000893
:10012000ED9E0008ED9E0008ED9E0008ED9E000883
:10013000ED9E0008ED9E0008ED9E0008ED9E000873
:1001400000000000000000000000000000000000AF
:10015000019D0008ED9E0008ED9E0008ED9E000840
:10016000ED9E0008ED9E0008ED9E0008ED9E000843
:10017000ED9E0008ED9E0008ED9E000800000000C6
:10018000ED9E0008ED9E0008ED9E0008ED9E000823
:10019000ED9E0008ED9E0008ED9E0008ED9E000813
:1001A000ED9E0008ED9E0008ED9E0008ED9E000803
:1001B000ED9E0008ED9E0008ED9E0008ED9E0008F3
:1001C000ED9E0008ED9E0008ED9E0008ED9E0008E3
:1001D000ED9E0008E9870008ED9E0008ED9E0008EE
:1001E000ED9E0008ED9E0008ED9E0008ED9E0008C3
:1001F000ED9E0008ED9E0008ED9E0008ED9E0008B3
:10020000ED9E0008ED9E0008ED9E0008ED9E0008A2
:10021000ED9E0008ED9E0008ED9E0008ED9E000892
:10022000ED9E0008ED9E0008ED9E00080000000015
:10023000ED9E0008ED9E000800000000ED9E000805
:10024000ED9E0008ED9E0008ED9E0008ED9E000862
:10025000ED9E0008ED9E0008ED9E0008ED9E000852
:10026000ED9E0008ED9E0008ED9E0008ED9E000842
:10027000ED9E0008ED9E0008ED9E000800000000C5
:10028000ED9E000800000000ED9E00080000000048
:0802900000000000ED9E0008D3
:1002A00010B5054C237833B9044B13B10448AFF3B0
:1002B00000800123237010BD2014002000000000E6
:1002C0002063010808B5034B1BB103490348AFF392
:1002D000008008BD000000002414002020630108F5
:1002E0004B1C012B98BF70472DE9F003911C9B0814
:1002F000B1F80480B1F802900A8831F802CC804449
:10030000814402448444D9F80070D8F8006015682C
:10031000DCF80040C9F80060C8F80070CCF8005064
:100320001460D9F80470D8F804605568DCF804400B
:10033000C9F80460C8F80470CCF80450546008315F
:10034000013BD5D1BDE8F00370474B1C012B98BF92
:1003500070472DE9F003911C9B08B1F80480B1F8B7
:1003600002900A8831F802CC00EB580800EB5909DA
:1003700000EB520200EB5C0CD9F80070D8F800607A
:100380001568DCF80040C9F80060C8F80070CCF8C7
:10039000005014600831013BDFD1BDE8F003704725
:1003A000034613F8012B002AFBD1181A01387047B5
:1003B00001F0FF01102A2BDB10F0070F08D010F816
:1003C000013B013A8B422DD010F0070F42B3F6D11A
:1003D000F0B441EA012141EA014122F007047FF033
:1003E00000070023F0E80256083C85EA010586EA8A
:1003F000010685FA47F5A3FA87F586FA47F6A5FAC6
:1004000087F68EB9EED1F0BC01F0FF0102F00702D1
:1004100032B110F8013B013A83EA010313B1F8D17C
:100420000020704701387047002D06BF354603385D
:10043000073815F0010F07D1013015F4807F02BF96
:10044000013015F4C03F0130F0BC0138704700BFE7
:1004500081F0004102E000BF83F0004330B54FEA75
:1004600041044FEA430594EA050F08BF90EA020FE2
:100470001FBF54EA000C55EA020C7FEA645C7FEA75
:10048000655C00F0E2804FEA5454D4EB5555B8BF98
:100490006D420CDD2C4480EA020281EA030382EA09
:1004A000000083EA010180EA020281EA0303362D9B
:1004B00088BF30BD11F0004F4FEA01314FF4801C6E
:1004C0004CEA113102D0404261EB410113F0004F80
:1004D0004FEA03334CEA133302D0524263EB430337
:1004E00094EA050F00F0A780A4F10104D5F1200ED5
:1004F0000DDB02FA0EFC22FA05F2801841F1000130
:1005000003FA0EF2801843FA05F359410EE0A5F103
:1005100020050EF1200E012A03FA0EFC28BF4CF034
:10052000020C43FA05F3C01851EBE37101F00045EA
:1005300007D54FF0000EDCF1000C7EEB00006EEBF7
:100540000101B1F5801F1BD3B1F5001F0CD3490881
:100550005FEA30004FEA3C0C04F101044FEA4452D8
:1005600012F5800F80F09A80BCF1004F08BF5FEA5F
:10057000500C50F1000041EB045141EA050130BD3F
:100580005FEA4C0C404141EB010111F4801FA4F1E2
:100590000104E9D191F0000F04BF01460020B1FA37
:1005A00081F308BF2033A3F10B03B3F120020CDA6F
:1005B0000C3208DD02F1140CC2F10C0201FA0CF04D
:1005C00021FA02F10CE002F11402D8BFC2F1200CB2
:1005D00001FA02F120FA0CFCDCBF41EA0C01904068
:1005E000E41AA2BF01EB0451294330BD6FEA0404B1
:1005F0001F3C1CDA0C340EDC04F11404C4F120029C
:1006000020FA04F001FA02F340EA030021FA04F3AD
:1006100045EA030130BDC4F10C04C4F1200220FA04
:1006200002F001FA04F340EA0300294630BD21FA42
:1006300004F0294630BD94F0000F83F4801306BF08
:1006400081F480110134013D4EE77FEA645C18BFFC
:100650007FEA655C29D094EA050F08BF90EA020F93
:1006600005D054EA000C04BF1946104630BD91EA8B
:10067000030F1EBF0021002030BD5FEA545C05D18E
:100680004000494128BF41F0004130BD14F58004CD
:100690003CBF01F5801130BD01F0004545F0FE4141
:1006A00041F470014FF0000030BD7FEA645C1ABF76
:1006B000194610467FEA655C1CBF0B46024650EAAD
:1006C000013406BF52EA033591EA030F41F40021D9
:1006D00030BD00BF90F0000F04BF0021704730B55F
:1006E0004FF4806404F132044FF000054FF0000134
:1006F00050E700BF90F0000F04BF0021704730B5F5
:100700004FF4806404F1320410F0004548BF4042C9
:100710004FF000013EE700BF42004FEAE2014FEA1E
:1007200031014FEA02701FBF12F07F4393F07F4FF9
:1007300081F06051704792F0000F14BF93F07F4F2B
:10074000704730B54FF4607401F0004521F000416E
:1007500020E700BF50EA010208BF704730B54FF0F4
:1007600000050AE050EA010208BF704730B511F0F9
:10077000004502D5404261EB41014FF4806404F131
:1007800032045FEA915C3FF4DCAE4FF003025FEAB3
:10079000DC0C18BF03325FEADC0C18BF033202EB3B
:1007A000DC02C2F1200300FA03FC20FA02F001FA95
:1007B00003FE40EA0E0021FA02F11444C1E600BF34
:1007C00070B54FF0FF0C4CF4E06C1CEA11541DBFE7
:1007D0001CEA135594EA0C0F95EA0C0F00F0DEF8B2
:1007E0002C4481EA030621EA4C5123EA4C5350EA97
:1007F000013518BF52EA033541F4801143F48013E8
:1008000038D0A0FB02CE4FF00005E1FB02E506F078
:100810000042E0FB03E54FF00006E1FB03569CF0CD
:10082000000F18BF4EF0010EA4F1FF04B6F5007FD3
:1008300064F5407404D25FEA4E0E6D4146EB060645
:1008400042EAC62141EA55514FEAC52040EA5E50CE
:100850004FEACE2EB4F1FD0C88BFBCF5E06F1ED878
:10086000BEF1004F08BF5FEA500E50F1000041EBAF
:10087000045170BD06F0004646EA010140EA02005C
:1008800081EA0301B4EB5C04C2BFD4EB0C0541EA7E
:10089000045170BD41F480114FF0000E013C00F393
:1008A000AB8014F1360FDEBF002001F0004170BDB7
:1008B000C4F10004203C35DA0C341BDC04F11404D0
:1008C000C4F1200500FA05F320FA04F001FA05F25C
:1008D00040EA020001F0004221F0004110EBD37029
:1008E00021FA04F642EB06015EEA430E08BF20EA55
:1008F000D37070BDC4F10C04C4F1200500FA04F3F8
:1009000020FA05F001FA04F240EA020001F0004189
:1009100010EBD37041F100015EEA430E08BF20EAFC
:10092000D37070BDC4F1200500FA05F24EEA020E44
:1009300020FA04F301FA05F243EA020321FA04F073
:1009400001F0004121FA04F220EA020000EBD3702A
:100950005EEA430E08BF20EAD37070BD94F0000F2A
:100960000FD101F00046400041EB010111F4801F5E
:1009700008BF013CF7D041EA060195F0000F18BF0F
:10098000704703F00046520043EB030313F4801F4B
:1009900008BF013DF7D043EA0603704794EA0C0F05
:1009A0000CEA135518BF95EA0C0F0CD050EA41061B
:1009B00018BF52EA4306D1D181EA030101F0004198
:1009C0004FF0000070BD50EA410606BF10461946C0
:1009D00052EA430619D094EA0C0F02D150EA0136CC
:1009E00013D195EA0C0F05D152EA03361CBF10460D
:1009F00019460AD181EA030101F0004141F0FE41AC
:100A000041F470014FF0000070BD41F0FE4141F42F
:100A1000780170BD70B54FF0FF0C4CF4E06C1CEA2F
:100A200011541DBF1CEA135594EA0C0F95EA0C0FE4
:100A300000F0A7F8A4EB050481EA030E52EA03359F
:100A40004FEA013100F088804FEA03334FF08055C0
:100A500045EA131343EA12634FEA022245EA1115ED
:100A600045EA10654FEA00260EF000419D4208BF9E
:100A7000964244F1FD0404F5407402D25B084FEA4B
:100A80003202B61A65EB03055B084FEA32024FF4F7
:100A900080104FF4002CB6EB020E75EB030E22BF54
:100AA000B61A754640EA0C005B084FEA3202B6EB14
:100AB000020E75EB030E22BFB61A754640EA5C00C3
:100AC0005B084FEA3202B6EB020E75EB030E22BF53
:100AD000B61A754640EA9C005B084FEA3202B6EB54
:100AE000020E75EB030E22BFB61A754640EADC0013
:100AF00055EA060E18D04FEA051545EA16754FEA75
:100B000006164FEAC30343EA52734FEAC2025FEA92
:100B10001C1CC0D111F4801F0BD141EA00014FF021
:100B200000004FF0004CB6E711F4801F04BF0143F2
:100B30000020B4F1FD0C88BFBCF5E06F3FF6AFAE0E
:100B4000B5EB030C04BFB6EB020C5FEA500C50F19E
:100B5000000041EB045170BD0EF0004E4EEA113121
:100B600014EB5C04C2BFD4EB0C0541EA045170BD28
:100B700041F480114FF0000E013C90E645EA060E6C
:100B80008DE60CEA135594EA0C0F08BF95EA0C0F9A
:100B90003FF43BAF94EA0C0F0AD150EA01347FF4E2
:100BA00034AF95EA0C0F7FF425AF104619462CE7B9
:100BB00095EA0C0F06D152EA03353FF4FDAE10461C
:100BC000194622E750EA410618BF52EA43067FF46D
:100BD000C5AE50EA41047FF40DAF52EA43057FF4FD
:100BE000EBAE12E74FF0FF3C06E000BF4FF0010C08
:100BF00002E000BF4FF0010C4DF804CD4FEA410C6C
:100C00007FEA6C5C4FEA430C18BF7FEA6C5C1BD038
:100C100001B050EA410C0CBF52EA430C91EA030FB9
:100C200002BF90EA020F0020704710F1000F91EA16
:100C3000030F58BF994208BF90422CBFD8176FEAE4
:100C4000E37040F0010070474FEA410C7FEA6C5CB2
:100C500002D150EA013C07D14FEA430C7FEA6C5CB9
:100C6000D6D152EA033CD3D05DF8040B704700BFE5
:100C70008446104662468C461946634600E000BF33
:100C800001B5FFF7B7FF002848BF10F1000F01BD05
:100C90004DF808EDFFF7F4FF0CBF012000205DF8D0
:100CA00008FB00BF4DF808EDFFF7EAFF34BF012055
:100CB00000205DF808FB00BF4DF808EDFFF7E0FFEE
:100CC00094BF012000205DF808FB00BF4DF808ED3F
:100CD000FFF7CEFF94BF012000205DF808FB00BFA6
:100CE0004DF808EDFFF7C4FF34BF012000205DF888
:100CF00008FB00BF4FEA410C7FEA6C5C02D150EA6E
:100D0000013C0AD14FEA430C7FEA6C5C02D152EA03
:100D1000033C02D14FF0000070474FF001007047D4
:100D20004FEA410212F5001215D211D56FF4787313
:100D3000B3EB625212D94FEAC12343F0004343EAB6
:100D4000505311F0004F23FA02F018BF4042704791
:100D50004FF00000704750EA013005D111F000401B
:100D600008BF6FF0004070474FF00000704700BFB1
:100D70004A0011D212F5001211D20DD56FF478731A
:100D8000B3EB62520ED44FEAC12343F0004343EA6F
:100D9000505323FA02F070474FF00000704750EABA
:100DA000013002D14FF0FF3070474FF00000704724
:100DB0004FEA4102B2F1E04324BFB3F5001CDCF17D
:100DC000FE5C0DD901F0004C4FEAC0024CEA5070B5
:100DD000B2F1004F40EB830008BF20F001007047E4
:100DE00011F0804F21D113F13872BCBF01F00040E7
:100DF000704741F480114FEA5252C2F11802C2F119
:100E0000200C10FA0CF320FA02F018BF40F0010099
:100E10004FEAC1234FEAD32303FA0CFC40EA0C004B
:100E200023FA02F34FEA4303CCE77FEA625307D188
:100E300050EA01331EBF4FF0FE4040F440007047BF
:100E400001F0004040F0FE4040F40000704700BF59
:100E500053B94AB9002908BF00281CBF4FF0FF3121
:100E60004FF0FF3000F07AB9ADF1080C6DE904CE17
:100E700000F006F8DDF804E0DDE9022304B0704775
:100E80002DE9F0478C460D460446089E002B51D1B3
:100E90008A4217466DD9B2FA82FEBEF1000F0BD01E
:100EA000CEF1200C01FA0EF520FA0CFC02FA0EF736
:100EB0004CEA050C00FA0EF44FEA174A250CBCFB6D
:100EC000FAF81FFA87F90AFB18CC45EA0C4508FB2B
:100ED00009F3AB420AD9ED1908F1FF3280F0238102
:100EE000AB4240F22081A8F102083D44ED1AA4B2C1
:100EF000B5FBFAF00AFB105544EA054400FB09F97A
:100F0000A14509D9E41900F1FF3380F00A81A14518
:100F100040F2078102383C44A4EB090440EA08404F
:100F20000021002E61D024FA0EF400233460736097
:100F3000BDE8F0878B4207D9002E54D0002186E807
:100F400021000846BDE8F087B3FA83F1002940F09C
:100F50008E80AB4202D3824200F2FA80841A65EBA3
:100F600003050120AC46002E3FD086E81010BDE8F6
:100F7000F08712B90127B7FBF2F7B7FA87FEBEF187
:100F8000000F34D1EB1B3A0C1FFA87FC0121B3FB95
:100F9000F2F8250C02FB183345EA03450CFB08F375
:100FA000AB4207D9ED1908F1FF3002D2AB4200F293
:100FB000D1808046ED1AA3B2B5FBF2F002FB1055CA
:100FC00043EA05440CFB00FCA44507D9E41900F1F1
:100FD000FF3302D2A44500F2B8801846A4EB0C04FB
:100FE00040EA08409DE731463046BDE8F087CEF143
:100FF000200405FA0EF307FA0EF720FA04F83A0C6B
:1010000025FA04F448EA0308B4FBF2F14FEA184564
:1010100002FB11441FFA87FC45EA044501FB0CF36F
:10102000AB4200FA0EF409D9ED1901F1FF3080F05E
:101030008A80AB4240F2878002393D44EB1A1FFAA6
:1010400088F5B3FBF2F002FB103345EA034500FBE1
:101050000CF3AB4207D9ED1900F1FF386FD2AB4268
:101060006DD902383D44EB1A40EA01418FE7C1F1E6
:10107000200722FA07F88B4005FA01F448EA030337
:1010800020FA07FE4FEA134CFD404EEA040EB5FB72
:10109000FCF94FEA1E440CFB19551FFA83F844EA89
:1010A000054509FB08F4AC4202FA01F200FA01FA24
:1010B00008D9ED1809F1FF3043D2AC4241D9A9F16A
:1010C00002091D442D1B1FFA8EFEB5FBFCF00CFB24
:1010D00010554EEA054400FB08F8A04507D9E4186E
:1010E00000F1FF3529D2A04527D902381C4440EA37
:1010F0000940A4EB0804A0FB02894C45C6464D46B6
:1011000015D312D056B1BAEB0E0364EB050404FA02
:1011100007F7CB401F43CC40376074600021BDE827
:10112000F0871846F8E69046E0E6C245EAD2B8EB0A
:10113000020E69EB03050138E4E72846D7E740468D
:1011400091E78146BEE7014678E702383C4445E72F
:10115000084608E7A8F102083D442BE7704700BFA6
:10116000014B1868704700BF3C1400202DE9F04186
:1011700080460F4616461D46D8F8004001E06B1C1D
:101180000AD1A06937EA00030CBF01200020B04259
:10119000F5D00020BDE8F0812DB1FFF7E1FF069BFF
:1011A000C01A8542E8D200232022032088F841207B
:1011B00088F8403088F84230BDE8F081F8B506463E
:1011C0000D461746346801E0681C22D1A3699906D0
:1011D000FAD510222023E261E361A3699A0701D5C1
:1011E0000023A362A369DB0703D4A36943F00103CF
:1011F000A361636800220F4F0425202101203B409A
:101200006360756486F8402086F8411086F84220B5
:10121000F8BD25B1FFF7A4FFC01B8542D2D2002341
:101220002022032086F8412086F8403086F842309C
:10123000F8BD00BF00E800FE70B505460C46164636
:1012400008E09A69910616D42CB3FFF789FF801B3A
:10125000844220D32B689A69520727D49A69D00612
:10126000EFD5324621462846FFF7A8FF00BB2B6882
:101270009A699106E8D520240E4E00220120DC61F7
:101280005968314059606A6485F8402085F84140CA
:1012900085F8422070BD6B6C20220021032013438F
:1012A00085F840106B6485F8412070BD002070BD4A
:1012B000012070BD00E800FE70B505460C461646DC
:1012C00001E0611C11D12B689A6992070BD49B69CC
:1012D000D806F6D5324621462846FFF76FFF00288C
:1012E000EFD0012070BD002070BD24B1FFF738FFA2
:1012F000801B8442E7D26B6C2021002203200B4329
:1013000085F840206B6485F8411085F8422070BD57
:1013100070B505460C4616462B689A6992061ED48F
:101320009B69D90612D424B1FFF71AFF801B8442AF
:10133000F2D26B6C2021002203200B4385F8402061
:101340006B6485F8411085F8422070BD3246214615
:101350002846FFF733FF0028E5D0012070BD0020AC
:1013600070BD00BF704700BF00284FD0F8B590F89F
:101370004130044603F0FF02002B3ED023682421B5
:10138000626884F84110196822F07062E06821F008
:101390000101012819601A619A6822F400429A60DA
:1013A000A2682FD042F4044202289A6021D05E68DD
:1013B0000021174D4FF0200E22690846354366691B
:1013C000A76932435D60E569DE6842EA0722276A61
:1013D00026F400463D43DE60DA601D601A6842F084
:1013E00001021A60616484F841E0216384F84210CC
:1013F000F8BD4FF400625A60D9E780F84020FFF74B
:10140000B1FFBBE742F400429A60D0E70120704789
:10141000008000022DE9F04190F8414082B0202C7C
:1014200003D0022002B0BDE8F08190F84040012CCA
:10143000F7D01F46012390460E4680F84030044600
:10144000FFF78EFE054604E0FFF78AFE401B1928D1
:101450005AD82368986910F40040F5D11022212150
:10146000C4F8248084F8411084F8422060646785C1
:10147000628D606392B2FF2A63D95968C6F3090688
:10148000434AFF2743483243278501400A435A60B5
:10149000B6B2414F3743638D2A46089920469BB226
:1014A000002B60D0FFF708FF002845D1616A236850
:1014B000481C228D6062013A097892B29962638D6C
:1014C0002285013B9BB26385002AE4D1638D9BB2E8
:1014D000002BE0D080210095089B2046FFF746FEB8
:1014E000DFF8C0E046F000724FF0FF0C714630BBF1
:1014F000638D9BB2634511D92268A4F828C0536854
:101500000B403B435360C6E700232022032084F8AE
:10151000412084F8403084F8423083E72068638DAE
:1015200041689BB201EA0E015FFA83FE23850A43FC
:1015300042EA0E424260AEE7636C042B25D00320E2
:1015400070E7618DC6F30906144A89B258683243C0
:10155000DFF840E0CFB2218500EA0E0142EA0742FF
:101560000A435A6094E7FFF7D3FE0028E4D12368CA
:1015700020210B4DD9615A682A405A6084F84110E5
:1015800084F8400084F842004CE701204AE700BF9D
:101590000020FF81009800FC0000FF010020008275
:1015A00000E800FE009C00FC2DE9F04190F841406D
:1015B00082B0202C03D0022002B0BDE8F08190F868
:1015C0004040012CF7D01F46012390460E4680F87C
:1015D00040300446FFF7C4FD054604E0FFF7C0FDB8
:1015E000401B19285AD82368986910F40040F5D197
:1015F00010222221C4F8248084F8411084F842206B
:1016000060646785628D606392B2FF2A63D959680E
:10161000C6F30906434AFF27434832432785014062
:101620000A435A60B6B2414F3743638D2A46089940
:1016300020469BB2002B60D0FFF7FEFD002845D16D
:10164000636A2268591C526A61621A70228D638D26
:10165000013A013B92B29BB222856385002AE4D114
:10166000638D9BB2002BE0D080210095089B204623
:10167000FFF77CFDDFF8C0E046F000724FF0FF0C92
:10168000714630BB638D9BB2634511D92268A4F8C3
:1016900028C053680B403B435360C6E70023202219
:1016A000032084F8412084F8403084F8423083E7F6
:1016B0002068638D41689BB201EA0E015FFA83FEE8
:1016C00023850A4342EA0E424260AEE7636C042B74
:1016D00025D0032070E7618DC6F30906144A89B24C
:1016E00058683243DFF840E0CFB2218500EA0E01AE
:1016F00042EA07420A435A6094E7FFF709FE0028CE
:10170000E4D1236820210B4DD9615A682A405A60E0
:1017100084F8411084F8400084F842004CE701202E
:101720004AE700BF0024FF81009800FC0000FF0191
:101730000024008200E800FE009C00FC406C704722
:10174000034A044B916A0B4018439062704700BFF4
:1017500000480258C0C000F00D4B00220D49186827
:1017600040F0010018601A611868014019609A6120
:10177000DA611A629A62DA621A635A639A63DA6306
:101780001A645A64196821F4802119609A667047B6
:101790000044025845EDF6EA07EE901AB0EE407AA2
:1017A000431EF8EEE77A2DE9F04F2DED0E8BB6EEE5
:1017B000008A9FED8ACA77EEA77A8BB08C000E461E
:1017C00020EE088A8346C7EE27CA1D460893DFED40
:1017D00084BA9FED84BADFED84AA28EE0C0A9FED4F
:1017E00083AA11F095FDF0EE408A28EE080A4FEA30
:1017F0008B03009320EE2B0A11F08AFD60EE0B9A0A
:1018000007EE905A01211C20E8EEAA9AF8EEE77A3A
:10181000E8EE0A9A89EEA79A0EF068FD074607904F
:1018200001212046C7F814B03D46BE610EF05EFDB2
:101830000246049001213A6020460EF057FD024610
:10184000039001217A6020460EF050FD0746029079
:1018500001212046AF600EF049FD034601900121B1
:101860000098EB600EF042FD002E0446286140F324
:10187000B080049BB1EE49EA039AF7EE00DA043B2C
:10188000089C043ACDF820B006939A46ABF10203C7
:1018900005929146DDF80880019F00259FED54DAFE
:1018A0009B4609900CE058460135431C4AF8040F4A
:1018B000AE4249F8043FA8EC017AE7EC017A3BD04C
:1018C00007EE905AF8EEE78A68EEAC8A28EE8C0AAA
:1018D00011F01EFDF0EE40EA28EEA80A20EE2B0AD9
:1018E00011F016FD20EE0B8AAEEEAA8AA8EE8A8AC7
:1018F000F4EEC89AF1EE10FA1ED4C8EE097A17EE8B
:10190000900AFEF709FF41EC100B11F07DFC51EC41
:10191000100BFFF705FA8442B0EE4D7AF7EE007A2D
:10192000C1DD07EE900AF8EEE77AAEEE278AC8EE40
:10193000097A3DEEE77AB7E7DDF820B0099CBBF104
:10194000000F10DD009B002223441946234643F874
:10195000042B9942FBD1002E29DD049B043B069306
:10196000039B043B0593069D0021029FDDF814E0D4
:10197000019855F8042F0131B7EC017A04EB82028B
:101980005EF8043FF0EC017A8E42D2ED006A04EB7F
:10199000830336EE877A82ED007A93ED007A77EE54
:1019A000277AC3ED007AE4DCBBF1000F0BDDF7EE24
:1019B000006A002394ED007A0133C6EE877A9B45D6
:1019C000E4EC017AF6DC07980BB0BDEC0E8BBDE8B9
:1019D000F08FBBF1000FB5DCF5E700BF8FFC413A9B
:1019E000EEE99E32295C0F409A99514117B7D138E0
:1019F00000000000F0B54469002C07DD02EB840410
:101A00001346002543F8045BA342FBD18369002BF6
:101A100027DD066884684568043E04EB830CC768CC
:101A2000043D56F8040F8E46F4EC016A02EB800088
:101A3000B1EC017A55F8043FA445D0ED007A02EBF1
:101A40008303E6EE877AC0ED007AF7EC016A9EED3B
:101A5000007AD3ED007AE6EE877AC3ED007AE0D122
:101A6000F0BDF0BD8369002B21DDF0B50668456847
:101A70008468043E043DC76804EB830E55F8040FE8
:101A800056F8043F01EB8000F7EC017A01EB830389
:101A9000B4EC017A90ED006AD3ED006AA64567EEDA
:101AA000867AE6EE877AE2EC017AE7D1F0BD7047FC
:101AB0002DE9F047B1F1000A2DED048B40F38E8043
:101AC00007EE90AA054600249FED499AF8EEE78AB2
:101AD0000026484F0FF21019D9E9008935E077EE5A
:101AE000677A67EE897A17EE900AFEF715FE42468E
:101AF0004B46FEF765FE41EC100B11F041FB324600
:101B00003B4651EC100BFEF75BFE02460B4630469F
:101B10003946FEF7A1FC02460B46FEF751FEFFF7E1
:101B200047F9B7EE000A07EE900A30EE670AB5EE05
:101B3000400AB1EEC08AF1EE10FA01D511F0DAFFD9
:101B40000134A5EC018AA24548D007EE904AF7EE91
:101B5000006AB8EEE77AF1EE007A27EE277AC7EE50
:101B6000287AF4EEE67AF1EE10FA14D4B0EE007AA8
:101B7000F4EEC77AF1EE10FAB1D4F0EE086AF4EEA2
:101B8000E67AF1EE10FA02D577EEC77AA9E777EE9A
:101B9000677A77EE877A67EE897A17EE900AFEF712
:101BA000BBFD42464B46FEF70BFE41EC100B11F01D
:101BB000E7FA32463B4651EC100BFEF701FE0246B7
:101BC0000B4630463946FEF747FC02460B46FEF709
:101BD000F7FDFFF7EDF800EE100AA8E7BDEC048B67
:101BE000BDE8F087AFF30080182D4454FB21F93F86
:101BF000B8CDA23F0000E03F2DE9F84F06460D4664
:101C0000782001210EF072FB002800F02581710080
:101C100004460660012689B299480DF04BFA276800
:101C200018236FF0130C974807EE905ADFF858E22C
:101C30003946A0613246A560B8EEE70A67601846EB
:101C40006661C4F820C0C4F81CE0E360FFF7A4FD9F
:101C50002061002800F00181FD00314628460EF089
:101C600045FB6062002800F0F980314628460EF0FE
:101C70003DFB8346A063002800F0F18028463146F2
:101C80000EF034FBA062002800F0EA8007F118098A
:101C900031464FEA890528460EF028FBE06200280D
:101CA00000F0DF80314628460EF020FBE06300287C
:101CB00000F0D880314628460EF018FB206400283A
:101CC00000F0D180314628460EF010FBA0640028B9
:101CD00000F0CA80314628460EF008FBE064002878
:101CE00000F0C380012128460EF000FB606400284C
:101CF00000F0BC80012128460EF0F8FA206300288D
:101D000000F0B580012128460EF0F0FA606300284B
:101D100000F0AE80012128460EF0E8FA2066002887
:101D200000F0A780A5F16006012130460EF0DEFA32
:101D30002065002800F09E80012130460EF0D6FA82
:101D40006065002800F09780012130460EF0CEFA41
:101D5000A065002800F09080012130460EF0C6FA00
:101D6000E065002800F089804FEA87080121BA4623
:101D700040460EF0BBFA606600287FD00121404645
:101D80000EF0B4FAA066002879D07B0058461946B8
:101D90009B46FFF78DFE6268BBEB420F0ADAA36B2E
:101DA0004FF07E5103EBC20203EBC70343F8041B61
:101DB0009342FBD1A7EB0A01002917DDBAF1010319
:101DC00014D45344A26B4FF07E5E1944013302EBEE
:101DD0000800013102EB830302EB810253F8041C7B
:101DE00042F8041D43F804ED8342F7D1B9F1000F26
:101DF00015DDE26B4FF07E53D4F840C01544D4F8A3
:101E000044E0E06CA16C42F8043BAA424CF8043B6D
:101E10004EF8043B40F8043B41F8043BF3D1002F5B
:101E200006DDE36D01221E4443F8042B9E42FBD1E4
:101E3000BAF1000F09DD636E0022A16E984443F8E9
:101E4000042B434541F8042BF9D100232046236796
:101E5000E3666367BDE8F88FFEE7FEE7FEE7FEE7AF
:101E6000FEE7FEE7FEE7FEE7FEE7FEE7FEE7FEE74A
:101E7000FEE7FEE7FEE7FEE7FEE7FEE7FEE7FEE73A
:101E8000246E00203333B33ECDCC4C3E0000000026
:101E90002DE9F04F04465E4244F6206065682768ED
:101EA0006B002DED0A8B89B0266205921A460293CB
:101EB000E36ED61BE26A013303910092BA1B8342A0
:101EC000049200F3C88107EE903AB7EE008A626F81
:101ED000F8EEE77AE3660132C8EE278A626718EE09
:101EE000900AFEF719FCEFA3D3E90023FEF7DAFE10
:101EF000002840F0718538EE688A002ED4F80CB0C6
:101F0000616A40F35385626EB0008E46134602EB61
:101F1000000C53F8048B9C454EF8048BF9D1002F2C
:101F20000DDD0A18DDF80CE0002301335EF8040B28
:101F30009F4242F8040BF8DC002E0DDD626E039B1D
:101F40001046049A03EB82020023013352F8047B0B
:101F50009E4240F8047BF8DC029B002B0EDD0298C9
:101F60000B46A26B01EB8000F2EC017A93ED007A54
:101F700067EE277AE3EC017A9842F5D10023A26A52
:101F8000C1480DF049F9002D11DDA36A009A03EB59
:101F9000C501184693ED017A0833D0ED007A9942D5
:101FA00067EEA77AE7EE077AE2EC017AF1D1009AC0
:101FB000AB0020690193D31811461A460693FFF728
:101FC00019FD6168022940F3F7846FF04048236DE2
:101FD000E06A88441F1D02469FEDAC7A03EB880E31
:101FE000DFEDBB4A9FEDB85AD2ED007A0432D7ED4F
:101FF000005A67EE877A92ED006AD2ED016AE5EE4B
:10200000A47AE6EE057AE6EE877AE7EC017ABE4539
:10201000EAD190ED007A4FEA88089FEDAE6AD3EDE1
:10202000007A00EB080E27EE067ADFEDA96AE76E6C
:1020300003EB0802A7EEA67A012F83ED007ADEED0E
:10204000007A92ED007A67EE867AE7EE267AC2EDA4
:10205000007A00F07784092F40F39284312F00F347
:1020600003814FF0050E626F724500F3378400293B
:1020700044DD08F10408D4F854A0D4F858E05246DE
:102080009C46D044574697ED007ADCED007AB4EEDA
:10209000677AF1EE10FA48BFF0EE477AE7EC017A82
:1020A0009EED007AFCEC017AB4EE677AF1EE10FA5C
:1020B00048BFF0EE477AB845EEEC017AE3D100274D
:1020C000F3EE046AD4F85CE04FF0010CB8469FEDE3
:1020D000706AB3EC017AF2EC017A27EE067A77EEB9
:1020E000A67AB4EEE77AF1EE10FACCBF4EF827C02C
:1020F0004EF827800137B942EBDCE76E092F40F339
:10210000DF836F1EE16B002D019B01EB030830DDC7
:10211000E26D0B46DFED686A8946A2F1040C13E01C
:1021200093ED007ADEED007A68EEA77A0433E8EEEC
:10213000077AF5EE407AF1EE10FA48BFF0EE667AD3
:1021400043ED017A984513D0A3EB09025CF8041F14
:1021500000EB020E0029E3D0DEED007A93ED007A69
:10216000F4EEC77AF1EE10FADED404339845EBD1E1
:10217000494642462069FFF73DFCE36E05EB0B093B
:10218000012B00F0CE83B9F1000F40F3A580236C42
:10219000D4F83CA0B7EE005AA06C0022D046DDF87F
:1021A00000C08646E16C9FED444ADFED3A5A9FED50
:1021B0003A3ADFED453A2AE0C1ED006AF5EE406AB1
:1021C00093ED006A77EE064AF1EE10FAC6EE247A35
:1021D000F0EE634A48BFF0EE446A67EEA77AE7EE96
:1021E000834AC6EE077A01320431043335EE647A4D
:1021F00067EE277AE6EEA47AF4EEE57AF1EE10FACD
:1022000058BFF0EE657A4A45EEEC017A67DAB8EC31
:10221000017AFCEC017A37EE057A37EE047A37EE74
:10222000047AC7EE876A76EEC56AF4EEE56AF1EEE7
:1022300010FAC1D4C1ED005A93ED006ADFED156AC2
:1022400077EE064AC6EE247AF0EE634A67EEA77A86
:10225000E7EE834AC5E7636FE06601339FED0F8ABF
:10226000DFED0F8A636748E6632F40F38D83B7F590
:102270007A7FC0F2A88342F20F7E7745D4BF4FF039
:10228000140E4FF0190EEEE6246E0020CDCC4C3D1E
:10229000CDCCCC3E0000C8420AD7633FEC51783F1A
:1022A0008FC2F53CB81E85EB51B89E3F9A99993D77
:1022B0009A99993E3333333F000000009A99193EB2
:1022C000E2C86B3EDD24663FCDCCCC3D17B7D1389C
:1022D000CDCC4C3FCDCC4C3ED4F83CA0A06CD0ED46
:1022E000007A012F1FED0E7AD4F860E067EE877A4E
:1022F0001FED105A9EED007AE7EE057ACEED007ADA
:102300001EDD0EF1040203460EEB870C5FED154A4D
:102310001FED1A7A1946D2ED005A0433D1ED017A35
:1023200091ED006A67EEA47AD3ED016AE5EE857A55
:10233000E6EE077AE6EE877AE2EC017A9445E9D197
:10234000B94514DDBF001FED266A0EEB89035FED72
:10235000276A38447744F0EC017A97ED007A67EE0B
:10236000867AE7EE267AE7EC017ABB42F3D14D4557
:1023700080F21983019B5FED307A73440EEB890E76
:10238000B3EC017A9E4577EE877AF9D194ED037A22
:10239000B7EE009A1FED375AF8EEC76A94ED087A47
:1023A0001FED390AB8EEC77A1FED3A6AC7EEA65A92
:1023B0001FED3BAA676B27EE000AC5EE257A77EE84
:1023C000897A89EE277AA7EE06AA11F027F9BBF1E0
:1023D000000FF0EE409A27DD019A07EB02089244C5
:1023E0000027DAED007A013729EEA70AB5EE400A98
:1023F000F1EEC08AF1EE10FA03D511F07BFBDAEDB5
:10240000007A37EE890A0AF1040AB5EE400AB1EE05
:10241000C08AF1EE10FA01D511F06CFBC8EE887A93
:10242000BB45E8EC017ADCD14D4580F2C580DDF892
:1024300018B0B1EE4AAAB7EE008AAA461FED5DBAFF
:102440005FED5D9A5FED5DAA0695DDF8008060E0C6
:1024500019EE100AFEF760F902460B46CEA1D1E94B
:102460000001FEF7D7FA0022CD4BFDF7F7FFFEF78C
:102470009FFC07EE900A68EEA77A636C5A19F4EE97
:10248000C87AF1EE10FA40F38E80F7EE007AB0EEE3
:10249000697A236CB1EE490AC2ED007A0AF1010AA9
:1024A000FBEC017A2B44226E67EE877AD3ED006A4B
:1024B00051199FEDBC6A226BE6EEAA7A9FEDBA7ABB
:1024C0001544C3ED007AD1ED007AD7ED008AC6EE4F
:1024D000276A78EE887A76EE886A88EE266AF0EEC9
:1024E000486AA6EE297AEAEE076AB0EE667A78EED6
:1024F000666AC7EE268A68EEA78A11F08FF8B0EEFA
:10250000487ACA45A8EE807AC8EE077AC5ED007A07
:1025100051D0ABEB0805A76CE36C2F442B44D7EDEF
:10252000007A93ED009A37EE887A39EE089AC7EE72
:10253000878A29EE289A79EE09BA1BEE900AFEF7EF
:10254000EBF841EC100B10F05FFE51EC100BFEF7B6
:102550002FFC07EE900ABDEEE77A17EE103A002B3B
:1025600026DB132B3FF774AF39EE0B0A8F4A7BEE55
:10257000E7BA02EB8301B5EE400AD1ED017A78EEBD
:102580006B6A91ED007AB1EEC0CA6BEEA7BAF1EEBC
:1025900010FAE6EE87BA03D511F0ACFAA76C2F4417
:1025A000CBEE8C7A67E727EEA77A27EE297A70E7D9
:1025B000F7EE007A5FE7069D019F226B2069D11933
:1025C000FFF750FA626C2069D119FFF74BFA626B82
:1025D0002069D119FFF746FA002D40F3DF81B7EEED
:1025E000009ADDF800A04FF00008DFED71AA9FED22
:1025F00071AADFED719A7AE018EE900AFEF78CF876
:1026000002460B4664A1D1E90001FEF703FA00225D
:10261000634BFDF723FFFEF7CBFB07EE900A68EE56
:10262000277AF4EEC97AF1EE10FA40F3AF80F7EEB4
:10263000007AF0EE4A6A626C236B3A443B4492EDB6
:10264000007AD3ED008AB4EEE67AF1EE10FA03D503
:10265000F0EE087A67EE277A67EEA76A216CC2ED82
:10266000007ABAEC017A394466EEA97ADFED536A52
:1026700091ED006A636B67EE877A3B44E6EE267A5B
:10268000C1ED007A92ED000AD3ED007AB4EE670A4C
:10269000F1EE10FA48BFB0EE670AB5EE400A82EDDF
:1026A000000AB1EEC08AF1EE10FA03D511F022FA59
:1026B000636B3B4493ED000A28EE888A79EE688AC2
:1026C000B5EE400AB1EEC0BAF1EE10FA01D511F044
:1026D00011FAF0EE487A236B08F101081F44E8EE86
:1026E0008B7A454567EEA77AC7ED007A68D04FEA46
:1026F0008807A26CE36C3A443B44D2ED007AD3EDF8
:10270000008A37EE897A78EE898A87EE878A68EEC2
:10271000888A38EEA8BA1BEE100AFDF7FDFF41ECDF
:10272000100B10F071FD51EC100BFEF741FB07EEA2
:10273000900ABDEEE77A17EE103A002B29DB132B37
:102740003FF75AAF38EEAA0A184A3BEE67BA02EBD7
:102750008301B5EE400AD1ED017A79EE4B6A91ED35
:10276000007AF1EEC08A2BEE27BAF1EE10FAA6EE4F
:1027700087BA01D511F0BEF9CBEE287A68EE277A38
:10278000F4EEC97AF1EE10FA3FF751AF67EE8A6ABC
:1027900051E7F7EE007A42E782E2C798BB96C03F66
:1027A0000000F03F9A99193EA8C64B3E38630108D5
:1027B00017B7D138FA7EAA3ECDCC4C3FCDCC4C3E9B
:1027C000059A012A0ED0B9F1000F0BDD4FF07E51B2
:1027D00003EB89091A4642F8041B9145FBD1002DF1
:1027E00040F3DF80A16A002708460A1D90ED017AB8
:1027F0009E46F3EC017A01370830083267EE277AFB
:10280000BD4240ED017A12ED037ADEED007A67EE0B
:10281000277A42ED037AE9DC0123626A71480CF001
:10282000FBFC029B002B0EDD636A0299A26B03EB9B
:102830008101F2EC017A93ED007A67EE277AE3ECFE
:10284000017A9942F5D1002E40F3A280A26EB00029
:10285000676A039D1346394602EB000EB3EC017A1A
:10286000F1EC017A9E4577EE277AE5EC017AF5D115
:10287000049B002B0FDD039B3A18034404981D466C
:102880000023013352F8041B984245F8041BF8DC7E
:10289000002E0BDDA26E2168002307EB81010133BE
:1028A00051F8040B9E4242F8040BF8DC09B0BDEC71
:1028B0000A8BBDE8F08F636F002B01DD0023636797
:1028C0006F1E012F7FF71EAC019A0021E36D083ABD
:1028D0001A4443F8041F9A42FBD113E400229142A8
:1028E00062677FF70BACA76D626D0797DDF81CC0C0
:1028F0009E4690460027DEED007A01379CED007A77
:10290000B4EE677AF1EE10FA48BFF0EE477AB942BA
:10291000E8EC017A5EF8049B4CF8049BEBDCFFF7D3
:10292000CEBBB9F1000F7FF7D7AC0099236C0A46F4
:1029300001EB890E194652F8040B964541F8040B39
:10294000F9D125E40029B6DDD4F858E008F10408EF
:10295000D4F854A00EEB080C77465246D146DFED72
:10296000227ACDF81CE0E7EC017ABC45E9EC017A6B
:10297000F9D1676F002F7FF782AB00276767B5E754
:102980004FF0000EFFF76FBB4FF00A0EFFF76BBB67
:10299000049B002B8ADD676AB0006CE7059B012B66
:1029A00015D1A16A38E7DFED107AEFE4002F7FF749
:1029B000D3AAB000FFF7B5BA6FF04048236DE06AC4
:1029C0008844FFF726BB4FF00F0EFFF74CBBB9F161
:1029D000000FE6DD236BF9E69FED048ADFED048A44
:1029E000FFF78BBA246E002000000000EC51783F06
:1029F0008FC2F53C2DE9F0410446132900F2A9806D
:102A0000DFE801F00F62A7A7A7A7A7A7A7A7A7A717
:102A1000A7A7677B889C9F0A036A00201360BDE814
:102A2000F0814768002306680D461268C6EB47062A
:102A3000C36642614FEA46084367806B4146FFF731
:102A400037F86268B8EB420F0ADAA36B4FF07E5199
:102A500003EBC20203EBC60343F8041B9342FBD112
:102A6000B7F1000816DDE26B4FF07E53D4F840C09A
:102A700002EB8808D4F844E0E06CA16C42F8043B17
:102A800042454CF8043B4EF8043B40F8043B41F807
:102A9000043BF3D1002F07DDE36D012203EB870731
:102AA00043F8042B9F42FBD1002E0ADD636E002207
:102AB000A16E03EB860643F8042BB34241F8042BC6
:102AC000F9D12846BDE8F081436900201360BDE8D4
:102AD000F081116800209FED217A21EAE1716429DB
:102AE000A8BF642107EE901A1160F8EEE76AC6EEFF
:102AF000877AC4ED067ABDE8F081D0ED067A9FEDC5
:102B0000177A002067EE877AFDEEE77AC2ED007A49
:102B1000BDE8F081116800209FED107A21EAE17193
:102B20006429A8BF642107EE901A1160F8EEE76AE5
:102B3000C6EE877AC4ED077ABDE8F081D0ED077A5A
:102B4000DDE712680020002AC8BF52422262BDE8B9
:102B5000F0814FF0FF30BDE8F08100BF0000C842B7
:102B60000A4AD2F8E83043F00803C2F8E830BFF36D
:102B70004F8F074A00235362BFF34F8F13889BB2D6
:102B800043F001031380BFF34F8F70470044025896
:102B9000000C004086B0C822174B0190019902FB3F
:102BA00001F203925A6A0492BFF34F8F049A039979
:102BB0000A4405920499059A914207D2596A049AE7
:102BC000914213D206B07047BFF34F8F596A049AEF
:102BD0009142F9D2596A059A9142F5D306B07047ED
:102BE000BFF34F8F596A049A9142EBD3596A059A01
:102BF0009142F5D306B07047000C004082B00190BE
:102C00004FF47A70019B00FB03F002B0FFF7C2BFE4
:102C100084B04FF47A630190019A03FB02F30393AB
:102C2000039B2BB1039B013B0393039B002BF9D127
:102C300004B070472DE9F84347F250244FF2502674
:102C4000051D07460444805942F2040946F204086F
:102C50002146B944B8442DED028B00F057FC2146C3
:102C60002A4628464FF400630CF03CFF4FF25423F1
:102C70002246B959F85844F2040600F0A9FB1A4A52
:102C800001231A4829464C4680581A460CF0B2FED9
:102C9000174948464FF48062394445463E4400F0A7
:102CA00077FD94ED010A083454ED027A20EE000A13
:102CB000A7EEA70AB5EE400AB1EEC08AF1EE10FA0F
:102CC00001D510F017FFB442A5EC018AE9D147F213
:102CD000340140464FF480623944BDEC028BBDE8BC
:102CE000F84300F0C7BF00BFC4020100000000307D
:102CF0006402010003785BB901F5005201F58043DD
:102D000000211160083242F8041C9A42F9D1704740
:102D1000002301F500520B60083141F8043C914258
:102D2000F9D17047F8B5071D47F25026054642F223
:102D3000040439460644FFF7DDFF294B4FF25021CA
:102D40004FF25420EB583246695828581944184419
:102D500000F03EFB2B78BBBB31464FF480633A4614
:102D600038462C440CF0BEFE2B4605F58042D3EDD0
:102D7000027A93ED017A77EEA77A37EE077A17EEAB
:102D8000901A83ED017A43F8081F9342EFD1012393
:102D9000144E154839461A4630580CF02BFE13498C
:102DA00020464FF48062294400F0F2FC46F204030E
:102DB00047F2040120462B44294450F8082B43F8DD
:102DC000042B8B42F9D1F8BD2C4449F250214FF429
:102DD00080632944224620460CF084FEC4E700BFED
:102DE000C002010000000030C402010064020100C2
:102DF00038B52DED028BB7EE008A0D4670EEA00AB5
:102E0000044688EE000A80EE200A10F0DDFB002D5B
:102E100070EE087A30EE488A80EE276AC8EE275AAC
:102E200019DD0E4B204604EB8501D3ED016AF1EE6E
:102E3000655AD0ED007A26EE267AE5EEA67AA6EE61
:102E4000277AF0EE676AA0EC017A8142F1D1C3EDF6
:102E5000007AC3ED017ABDEC028B38BD4814002026
:102E600008B52DED028B90ED008AB5EE408AF1EEAB
:102E700010FA0DD0D0ED018A88EE880A10F048FAD9
:102E8000B5EEC08AF1EE10FA07D4BDEC028B08BD96
:102E9000BDEC028B9FED0A0A08BDF5EEC08AF1EE8B
:102EA00010FA07D4F1DBDFED077ABDEC028B30EED0
:102EB000270A08BDDFED037A30EE670AE5E700BFB9
:102EC00000000000DB0F494070B515461E46026841
:102ED0000C46436891ED030A2DED028B2A6082B007
:102EE0006B600CF0E3FEB0EE408A94ED030A0CF048
:102EF00099FE86ED010AD5ED017A04F1100086ED08
:102F0000008A20EE277AD5ED006AA8EE267A84EDB5
:102F1000047AD6ED006A95ED007A67EEA67AE0EEC7
:102F2000477AC4ED057AFFF79BFF8DED010AD4EDDA
:102F3000007A94ED086ADDED016A94ED017AE6EE1F
:102F4000267AF4EEC77AC4ED007AF1EE10FA03D5D2
:102F5000F0EE477A84ED007A94ED027AB4EEE77AE7
:102F6000F1EE10FA03D5F0EE477A84ED007A9DED8C
:102F7000017A94ED076AD4ED036AE6EE077A9FEDD5
:102F8000147A77EEA67AF4EEC77AC4ED037AF1EEFE
:102F900010FA08DB77EEC77AF4EEC77AF1EE10FA92
:102FA000F8DAC4ED037AF5EEC07AF1EE10FA0AD53C
:102FB0009FED077A77EE877AF5EEC07AF1EE10FA98
:102FC000F8D4C4ED037A02B0BDEC028B70BD00BF33
:102FD000DB0FC940000000002DE9F04F47F25024FC
:102FE0004FF25025061D4FF25427044442F20408C4
:102FF0002DED028B85B021460290405900F086FAF3
:103000002146324630464FF400630CF06BFD029BC4
:10301000224659591C46D85900F0DAF90123524A80
:1030200031465248A04480581A460CF0E3FC5049FF
:103030004FF480624046214400F0AAFB4D4B625998
:10304000E35893427BD0E159029C4FF07C50494FAA
:10305000494D4A4EE25126446151494A494D4A4937
:103060004A4BB560B26123440022F161484F494D9B
:103070004949776035623260F260326172615A604C
:103080001860996046F20403DFF820B147F2040AA1
:10309000424F1A46424B434844461946029BDFEDD5
:1030A000428A9A189B44039215461A465318924432
:1030B0001744009313180193009B5A46204631464B
:1030C000FFF702FF3868FDF727FB96ED008A08340A
:1030D00021A3D3E90023FDF773FB8046894618EE50
:1030E000100AFDF719FB1EA3D3E90023FDF768FBC7
:1030F0000B46024649464046FDF7B0F9FDF758FE3B
:1031000007EE100A019B38EE478AD3ED007A38604B
:1031100028EE278A28EE288AA5EC018AAA45CBD179
:1031200047F23401029B03984FF480620B44194626
:1031300005B0BDEC028BBDE8F04F00F09BBD0298DE
:103140000D4BC159C3588B427FF47EAF0B4E0644E2
:1031500098E700BFAFF30080AE47E17A14AEEF3FCF
:103160007B14AE47E17A843FC402010000000030C6
:1031700064020100B8020100BC02010084020100E7
:10318000BCC3903F5BE4A83FAFB7AD3E78020100FF
:103190005BE4A8BF8DC3EB3CE4B74B3F7C0201006E
:1031A000B00201008002010000FEFF46A8020100FB
:1031B0004FF2542347F250224FF25021024441581B
:1031C0002DE9F0478146C05842F2040446F2040A51
:1031D00047F20406DFF8F4804C44CA44324F4E44B0
:1031E00025462DED068B00F0F3F801232F4A09F157
:1031F00004012F489FED2FAA80581A460CF0FAFBC5
:103200002D4920464FF480624944544600F0C0FAEC
:103210009FED2A9AD8ED007AD7ED000ADFED289AC3
:1032200009E084ED009A04340835F0EE687AA6428D
:10323000F0EE480A22D0D5ED008A95ED018A20EE05
:10324000E80A68EE200AA8EE270AE8EEA70A10F0BE
:10325000E3F920EE0A0AC8ED008A87ED008AB4EE91
:10326000C90AF1EE10FADCDCB4EEE90AF1EE10FA6C
:1032700054BF84ED000AC4ED009AD4E750464FF4E1
:103280008061DFED100A9FED100AFFF7B1FD47F2F4
:10329000440150464FF480624944BDEC068BBDE8C2
:1032A000F04700F0E7BC00BF44140020C402010056
:1032B0000000003000007A446402010000FEFF4676
:1032C000000000C700401C4817B7513840140020C8
:1032D000B0EE006A324A0123DFED326A70B52DED9F
:1032E0000A8B07EE903A0133F8EEE77AB3F5006FF8
:1032F00067EEA67A86EE277AA2EC017AF1D12A4906
:10330000002000239FED277A01F58042086007EE38
:10331000903A0133F8EEE77AB3F5006F67EE877AFB
:10332000E2EC017AF3D1B7EE000A204C204E0025E2
:103330009FED20BAB0EE409ADFED1FAAF0EE408A72
:103340009FED1EAADFED1E9ADFED1ECA9FED1ECA7D
:10335000DFED1EBA13E007EE905AB8EEE78A28EECA
:103360002C0A10F0A7F8F0EE408A28EE0C0A10F0B4
:10337000A1F8B0EE409A28EE2B0A10F09BF8F0EE80
:103380006A7A0135E8EECB7AE9EE0A7AE0EE697AFC
:10339000E4EC017AA642DED1BDEC0A8B70BD00BF21
:1033A000506E0020DB0F49404C6E00204C8E0020F8
:1033B000509E00202601FA3E14AEB73EB4AB103E3C
:1033C000795D3F3CDB0FC93BDB0F493CE4CB963CCE
:1033D0002DE9F84F2DED068B08EE100A4FF4005042
:1033E000174608EE901A0DF003F8002800F08280CE
:1033F00006464FF4006140480BF05CFEF8EEE88AA8
:103400009FED3E6AB8EEC88AB0EE007A3546C8EE47
:10341000867A06F5005133460022C8EE066A77EE3A
:10342000A77AB0EE67AAE6EE877AA6EEC7AA43F8B7
:10343000042B8B42FBD1B6EE007A06F50063304CCC
:1034400006F6040A83ED00AA994667EE879A04F50A
:1034500080482AEE07AA04F5006BF8EC018AB4EC68
:10346000018A2AEE280A10F06DF8B0EE409A29EE93
:10347000A80A10F01FF85C4568EE097A27EE800A6A
:10348000AAEC010A29ED010AE7D11E4B1E4AB3EC52
:10349000017AD5ED007A9A4267EE877AE5EC017AF7
:1034A000F5D100233A46144831460BF0B5FE43F6F9
:1034B000F87341F6F8703A463B443844D2ED037A4B
:1034C000F1EE677AC3ED017A52F8081F43F8081944
:1034D0009842F3D142F2080307F5005230463B44CC
:1034E000BDEC068B59681B6851601360BDE8F84F4E
:1034F0000CF086BFFEE700BF4CCE002000504347D3
:10350000506E00204C8E0020509E00202DE9F04788
:103510002DED028B08EE100A4FF400500F460CF010
:1035200067FF002875D006464FF4006139480BF05C
:10353000C1FDB8EEC88ADFED387A344606F5005191
:103540003346C8EE278A002278EEA88A43F8042B77
:103550008B42FBD106F50063304D06F60409984610
:1035600005F5006AC3ED008AB5EC018A28EE880AE9
:103570000FF0E8FF80EE080AAA45A9EC010A28ED41
:10358000010AF1D1264A334626499FED277AF2EC0B
:10359000017AD3ED006A8A4267EEA67AE3EC017AFB
:1035A00037EE277AF3D141F20403B0EEC77A334401
:1035B000D4ED006AC6EE877AE4EC017AA342F7D133
:1035C00000233A46134831460BF026FE43F6F873C3
:1035D00041F6F8703A463B443844D2ED037AF1EEB6
:1035E000677AC3ED017A52F8081F43F80819984228
:1035F000F3D142F2080307F5005230463B44BDECDC
:10360000028B59681B6851601360BDE8F0470CF0ED
:10361000F7BEFEE74CCE00200050434750AE0020DE
:103620004C8E0020509E00200000000030B5574C0A
:10363000B7EE006A0D1ED4ED073A36EE633A2DED73
:10364000028B84ED083A83B040F39880BFEE004AC5
:10365000D4ED014A034694ED025A00EBC502D4EDC5
:10366000035AD3ED006A083353ED017AF5EEC06AD0
:10367000F1EE10FAF5EEC07A54BFB0EE467AB0EE35
:10368000447AF1EE10FAA7EE265A54BFF0EE466ADD
:10369000F0EE446A9A42E7EE274AE6EEA75AE0D1F6
:1036A00007EE905AD4ED052A94ED042A0023B8EED3
:1036B000E76A94ED064A0022E360A360C5EE067A4D
:1036C0002260636084EE867AC5EE866A67EE837A4E
:1036D000E3EEA27A23EE477AA3EE827AF5EE407A01
:1036E000C4ED057A66EE836AF1EE10FAE3EE846AC1
:1036F00084ED047AC4ED066A20D14FF07E526362F5
:10370000A262002D16DDD4ED095A00EBC50194ED3F
:103710000A6A031D13ED017A083050ED017A08336F
:1037200067EE066AE7EE257A40ED017A814243EDC5
:10373000036AEFD103B0BDEC028B30BD27EE476AC0
:1037400067EEA75A87EE275AC4ED0C5AF0EE467A78
:10375000E6EEA67A87EEA50AC4ED0B7A84ED095A47
:10376000B5EE400AB1EEC08AF1EE10FA03D5019031
:1037700010F0C0F9019884ED0A8AC2E7D4ED014A3D
:1037800094ED025AD4ED035A8AE700BF00000020EE
:10379000F7EE005A91ED015A002AD1ED034A9FED50
:1037A000236A75EEC55A70B50E462DDDD1ED026A5D
:1037B000031D00EBC205B0EE464A0C6803E008307A
:1037C000083385421ED0D0ED017A012C13ED017A29
:1037D00067EEA77AE7EE077A25EEA77A36EE276A34
:1037E000A5EE267AF0EE476AE9D1F4EEC74AF1EE8B
:1037F00010FAE4DB03ED014A083000ED014A08331A
:103800008542E0D1C6ED026A07EE902AB8EEE70ADB
:1038100086EE000A0FF07CFFF2EE047A20EE270A13
:10382000BCEEC00A86ED040A70BD00BF00000000B7
:10383000F0B50D6883B00C460646002D40F01481AB
:10384000023A9FED9C0A012A40F2248194ED397AD4
:10385000324606F580513346F3EC017AF5EEC07A34
:10386000F1EE10FAD8BFF1EE677AF4EEC77AF1EE16
:1038700010FA03DDB0EE677AC4ED397A9942EBD1E4
:10388000D4F8E80004EB85010130D1F8D410884267
:10389000C4F8E80002D30020C4F8E800B5EE407A8E
:1038A0000025F1EE10FA40F0B88094ED7B7AF7EE47
:1038B000007AB4EEE77AF1EE10FA05DDF7EE007A61
:1038C000B0EE677AC4ED7B7AD4ED7C7AF4EEC77AF9
:1038D000F1EE10FA44DD77EEC76AD4F8D070C4ED8B
:1038E0007D6A7FB3781CB7EE006A251D314604EB74
:1038F000800012E0F4EE467A91ED007AF1EE10FAD3
:10390000C8BFF0EE467AA84267EE277AE1EC017A6A
:1039100016D0D4ED7C7AD4ED7D6AB5EC017AE7EE71
:10392000667AF5EEC07AF1EE10FAE3D591ED007A01
:10393000A842DFED617A67EE277AE1EC017AE8D1FF
:1039400094ED7B7A06EB8701D1ED007A67EE877AFA
:10395000E1EC017A994294ED7B7AF5D1D4ED7C7A51
:10396000B4EEE77AF1EE10FA44DD77EE676AD4F848
:10397000D070C4ED7D6A7FB3781CB7EE006A251D58
:10398000314604EB800012E0F4EE467A91ED007AC5
:10399000F1EE10FAC8BFF0EE467A854267EE277A5C
:1039A000E1EC017A16D0D4ED7C7AD4ED7D6AB5ECE9
:1039B000017AE7EE267AF5EEC07AF1EE10FAE3D559
:1039C00091ED007A8542DFED3C7A67EE277AE1ECF3
:1039D000017AE8D194ED7B7A06EB8706D6ED007A82
:1039E00067EE877AE6EC017A9E4294ED7B7AF5D118
:1039F000D4ED7C7AB4EE677AF1EE10FA09D1D2ED0B
:103A0000007A67EE877AE2EC017A9A4294ED7B7A4B
:103A1000F5D184ED7C7A03B0F0BDC0EE076AD4F82E
:103A2000E800DFED267A04EB8000C0ED3B6AC4F8C5
:103A3000E450C4ED7B7A00293FF440AF01F13B052F
:103A4000B0EE677A04F1EC0104EB8505F1EC017A44
:103A5000F4EEC77AF1EE10FA03D8B0EE677AC4ED4F
:103A60007B7AA942F2D122E791F8F831F3EE040A09
:103A7000B2EE040A019207EE903AF8EE677AC7EECA
:103A8000A00A0FF0BBFE019A94F8CC50023A012A2A
:103A90003FF6DCAE94F8F831F3EE040AB2EE040A15
:103AA00007EE903AF8EE677AC7EEA00A0FF0A6FE8E
:103AB000CCE600BF00FEFF4600000000286B6E4E03
:103AC0002DE9F84F2DED048B0B78012B03D0BDECC5
:103AD000048BBDE8F88F4B780C4617460546D9078E
:103AE0005FD5002AF3DD061D81464FF0000A9FEDE9
:103AF0005F9AB046DFED5E8A4FF0000B25E094ED53
:103B0000257A67EE877AB4EEE78AF1EE10FA40F391
:103B10009D800D22D4F89C10C9F804B048F804BC6C
:103B2000C4F890200E330E310AF1010A09F1080998
:103B300003F00E0301F00E01574508F10808C4F820
:103B40009830C4F89C1000F08C8099ED017A58ED03
:103B5000016A27EE070AA6EEA60AB5EE400AB1EE04
:103B6000C08AF1EE10FA05D50FF0C4FF58ED016AD6
:103B700099ED017AD4F8983068EE097A04EBC30223
:103B8000C2ED026A82ED037A94ED207AD4F8902097
:103B9000E7EE287A002AC4ED207AB0D056DD013A4B
:103BA000B8E79A0793D5002F91DD061DF5EE009A30
:103BB0004FF000089FED2D9ADFED2D8AD5ED017AAB
:103BC00008F1010816ED017A27EEA70AA7EE070A09
:103BD000B5EE400AB1EEC08AF1EE10FA05D50FF04D
:103BE00089FF16ED017AD5ED017A68EE096A94ED48
:103BF000215A94ED256AF6EE085A27EE297A94EDBB
:103C0000224AE5EE286AD4ED234A67EEA97AA4EEAB
:103C1000257AE4EEA57A26EE866AC4ED216A84ED63
:103C2000227AB4EEC68AC4ED237AF1EE10FA03DDEF
:103C300006ED017AC5ED017A474505F1080506F163
:103C40000806BBDCBDEC048BBDE8F88FD4F89C10F3
:103C500004EBC102906848F8040CD268C9F804204B
:103C600060E763789B07A1D431E700BF17B7D1386D
:103C700072F97F3F002A19DD91ED036A00EB8202A1
:103C8000D1ED026AD0ED007AD1ED005A37EEC67A56
:103C9000B0EE676AA5EEA67A80ED007AC1ED037AF0
:103CA000F0EC016A8242C1ED026AEBD1704700BFBD
:103CB0002DE9F04346F204054CF2502747F2040187
:103CC00087B005440744804601442C463B4654F8DF
:103CD000042B8C4243F8042BF9D14BF2502608F107
:103CE00004094FF40061684646440BF0E3F9684666
:103CF0004A46314600230BF08FFA47F250214A46DC
:103D0000484641444FF400630BF0ECFE3246012379
:103D1000494668460BF080FA32462B4653F8041B9E
:103D2000A34242F8041BF9D157F8042B45F8042BA1
:103D3000AB42F9D107B0BDE8F08300BF002A30DD07
:103D4000D1ED043A00EBC20291ED004A031D91ED62
:103D5000025AD1ED054AD1ED035AD0ED017A08306F
:103D600013ED017A083377EEE46A37EE636AF0EE1A
:103D7000674AE4EE256AA4EE056AF0EE473A03EDE1
:103D8000036A40ED016A81ED047AC1ED057A13ED15
:103D9000035A81ED025A50ED015A8242C1ED035A95
:103DA000DBD170472DE9F04F01F5F4678A46504D9D
:103DB0008146504900F5805403463A462DED028B6A
:103DC00083B0CAF80050CAF8041053F8041BA34289
:103DD00042F8041BF9D10AF595530AF11C0841F683
:103DE00024260AF5287400930AF5D1535644019706
:103DF0001F4643469FED405AB046A346DFED3F5A6B
:103E00000AF5BD559FED3E8A1E4699ED006A304683
:103E10000BF5207E334666EE056A8AED026AFEECFB
:103E2000017A93ED007A67EEA67AE7EE257AE3EC65
:103E3000017AA342F3D1AE462B4650F8042BA042A0
:103E400043F8042BF9D13B46404653F8042DAB42CE
:103E500040F8042BF9D126EE266A9AED057A0BF28A
:103E600004505B46DFED267AA7EE256A8AED038AC9
:103E70008AED056AF3EC016ABEEC017A8342E6EE54
:103E8000877AF7D127EE857ADAED066ACAED037AEA
:103E900027EE277AA6EEA57A86EE070A8AED067A3D
:103EA000B5EE400AF1EEC08AF1EE10FA03D50FF03C
:103EB00021FEDAED037A0BF1040B009B68EEA77A82
:103EC000CAED048A9B45E9EC017A04D0DAED005A88
:103ED0009AED015A99E7019F5BF8043B44F8043BD3
:103EE000BC42F9D103B0BDEC028BBDE8F08F00BF3E
:103EF000C9E57F3F00B8D13900B8D139C9E57F3F66
:103F0000000000000D4BC25C012A00D0704730B4A5
:103F10004FF250234FF25425C35845595B1BB3F55C
:103F20007A7F04DA0846064930BCFFF73BBF054CF0
:103F3000054BC35C206830BCFDF7AABFC802010076
:103F400064CE002018EB0020C9020100B2F5006F1A
:103F50002DE9F047154604468A4671D0B2F5805FD8
:103F600065D0B2F5806F13D04FF480400CF040FA6A
:103F70000646002863D0002D14DC002201460123F0
:103F800010460BF037FD3046BDE8F0470CF038BA6C
:103F90002D4FDFF8C0904FF480400CF029FA064610
:103FA00000284CD023464846344632460021F0ECE7
:103FB000016A013193ED007A0832D3ED017A8D4226
:103FC00027EE267A03F1080367EEA67A02ED027A5D
:103FD00042ED017AEBDC3846AAF1020A00274FF0E5
:103FE0000008DFF874900123002231460BF002FD37
:103FF00094ED010A0137D4ED007A083420EE000A6E
:10400000A7EEA70A0FF084FB10EE100AFCF784FB62
:1040100042464B46FCF7D4FBFCF782FEBD422AF831
:10402000020FE5DC3046BDE8F0470CF0E9B94FF48B
:104030008040064F0CF0DCF906460028B2D1FEE7BE
:10404000034FDFF81890A6E704D6020814D602083A
:10405000F4D502088C630108000024408C73010829
:1040600007EE901A38B51546B8EEE70A044600F098
:10407000B9FA002D0ADD204604EB8502D0ED007A66
:1040800067EE807AE0EC017A9042F7D138BD00BF4C
:10409000F0B5714E83B0714F15460C4600F052F9E1
:1040A000324606F500503B4619680833516053F814
:1040B000041C42F8081F8242F6D169482146A0F547
:1040C00000540A8808344B88043112B21BB207EE40
:1040D000902AB8EEE77A07EE903AF8EEE77A04ED28
:1040E000027A44ED017A8442EBD15E494FF480625A
:1040F000A1F54050FFF722FE4FF480625A4957481D
:10410000FFF7DEFC4FF480615448FFF78FFA4FF45D
:10411000806256495148FFF719FF3378032B40F26C
:104120008A80534B03F5005211680833083243F874
:10413000081C52F8041C43F8041CBB42F4D14D4F38
:1041400001234D480022394630580BF053FC17F834
:10415000043C032B94BF4CF25030484800F0E6FA80
:104160003378042B08D8DFE803F0616103726D0037
:104170003948FEF75FFD3378012B49D93648FFF700
:1041800097FD3278042A43D13D493548FFF750FB6B
:104190003C4B93F82E10002940D028394FF4806210
:1041A0002F48FFF75DFF4FF480622D49364800F03D
:1041B00075FA2A4647F6FF702A4DDFED346A4FF450
:1041C00000419FED337A05E0A5421180518002F154
:1041D00004021BD0F4EC017AF4EEE67AF1EE10FA68
:1041E00001DB10805080F4EEC77AF1EE10FAEBD9C3
:1041F000FDEEE77AA54202F10402CDED017ABDF9A8
:10420000043022F8043C22F8023CE3D103B0F0BDB4
:1042100013491148FFF776FE3278B5E74FF4806214
:104220006FF063010E48FFF71BFFBCE70A48FEF77B
:1042300079FD3378A0E74FF480620849154800F013
:10424000D9F96EE70448FEF7B3FF337894E70248E4
:10425000FEF7C2FE33788FE70000003004400030E4
:104260000460003004700030B4F2003064000020BC
:104270000420003004000030C4020100007102007C
:1042800054700030340000201CEB002000FEFF467C
:10429000000000C708EB00200022F0B5134683B0F1
:1042A000214C224E02F58065910024F82530A800AB
:1042B00024F8223001326518271831443044B2F511
:1042C000806F7B806B80A0F8083FA1F8083FA0F8C2
:1042D0000A3FA1F80A3FE5D1154B0021154A03F822
:1042E000011F9342FBD14CF250314FF48060FDF737
:1042F00083FC012402AA104B002142F8044D1860EF
:10430000FEF778FB0D4A0023DFED0D6A07EE903AC9
:104310000133B8EEE77A322BC7EE267AE2EC017A67
:10432000F4D103B0F0BD00BFC0730130B8840130D8
:10433000FFFFFF2FCF02013018EB00205870003034
:10434000000044422DE9F0418C4B05468C4C8D4ACF
:10435000E250C37A042B0CD04CF25032C0F8302813
:10436000032B00F20481DFE813F0DB00E800F50026
:10437000CE0000228449854EDFED856AC0F83018F2
:1043800042628262C0F83828C271824A4FF2543CBD
:1043900081484FF0000811462370DFF83CE2B2EE8E
:1043A000047A41F8040947F2241795F84438106458
:1043B000B0EE470A03EB83037848C2F814E04FF0ED
:1043C000320E03EB83030860754847F228119B0007
:1043D00044F80C80106307EE903A72480523DFF82A
:1043E000FCC144F807E047F22C1782ED067A4FF043
:1043F0000C0E635047F23413D0622521C2F83CC042
:1044000047F230101922E15044F807E047F2201734
:10441000225047F25402287D47F24C214FF2542C8F
:104420004FF25023A050F8EEE77A95F815E00E22EF
:104430004FF2582004F807E04FF2B82EAF7D6754D2
:104440004FF2B427E96844F80C102969DFF890C1ED
:10445000E150554B5549C3ED047A9E60C3F800C046
:10446000534B22504FF2B520C1ED006A8B6044F8E7
:104470000E20EB7D4F4EE355D5ED077A06F57262BF
:104480004D49FCEEE76AC6ED007A116016EE903AEF
:10449000235495F8213000EE903AF8EE607AC7EE9A
:1044A000870A0FF0ABF906F62873444A83ED000A39
:1044B00095F82010424BB6EE086AA150653295F887
:1044C0002C10BAEE087AE154543B95F82D10E358BD
:1044D000A15495F90A2007EE903A06F6847306EE89
:1044E000902AF8EEE77AF8EEE66AA6EE867A77EE9C
:1044F000C77A83ED007AFDEEE77A17EE903AC5F8B9
:104500004838BDE8F08143F2D4022E480021284EFD
:10451000DFED2D6A6A62C5F83828A862E97134E7D0
:1045200041F66A0229480021214E6A62C5F83828FE
:10453000A862E971DFED266A27E741F66A0223489F
:1045400000211B4E6A62AA62C5F83808E971DFEDE6
:10455000216A1AE743F2D4021A480021144E6A6213
:10456000C5F83828A862E971DFED176A0DE7D0EDCC
:104570000A7A0F4EF8EEE76A07E700BFC4020100AF
:1045800000000030F4D502080071020000401C4811
:1045900000000000087000300000484220637E3FA9
:1045A00000002042B3B57E3F1CEB002008EB00204A
:1045B0000050434748F3003077BE7F3F640201005C
:1045C000C80201002CCFFFFF005043C696E7FFFF53
:1045D0000050C3C50050C3456DAD7F3FFA7E7F3F9D
:1045E00000007A44F3EE040AC0EE200AB2EE040A98
:1045F0000FF004B9D0ED007AF5EE407AF1EE10FA42
:1046000048D0D0ED026A002AF0B52DED028BDFED27
:10461000228A83B067EEA87A87EEA67A80ED037AC5
:1046200034DD174604460D4690ED018A0026B4EEAF
:10463000E88A0136F1EE10FAA8BF38EE688AB5EEC6
:10464000C08AF1EE10FA48BF38EE288A84ED018A5C
:10465000B0EE480A0EF02EFF8DED000AB0EE480ACB
:104660000EF070FF2A462846012369468DED010AA7
:104670000BF038FA94ED018AD4ED037AB74205F1D4
:10468000080538EE278A84ED018AD0D103B0BDEC4D
:10469000028BF0BD704700BFDB0FC940D0ED007A40
:1046A000F5EE407AF1EE10FA3BD0D0ED026A002A26
:1046B00070B52DED028B9FED1B8A67EE887A87EE31
:1046C000A67A80ED037A29DD04460D4690ED010AB5
:1046D00001EB8206B4EEC80AF1EE10FAA8BF30EE84
:1046E000480AB5EEC00AF1EE10FA48BF30EE080AEB
:1046F00084ED010A0EF026FFD5ED007A94ED047AE0
:10470000E0EE077AE5EC017AAE4294ED010AD4EDD1
:10471000037A30EE270A84ED010ADBD1BDEC028B6F
:1047200070BD7047DB0FC940704700BFF8B53D4B07
:104730001A68824249D03C4A186090426CD045D9F0
:104740003A4B984259D03A4B98424CD0394B984208
:1047500058D04FF49C46FF27374D2B6823F08063D9
:104760002B60BFF34F8F2C6814F00064FBD1322014
:10477000FEF744FAA96A314B21F47C312E4AA96232
:10478000A96A41F43041A962A96B0B40AB63AB6BE2
:104790003B43AB63AB6B23F47E43AB63AB6B334305
:1047A000AB63EC63EB6A43F04003EB62EB6A23F02C
:1047B0002003EB62EB6A43F40023EB622B6843F0C7
:1047C00080632B6013681B01FCD5F8BD1C4B98421D
:1047D0001DD01C4B98420BD01B4B9842B9D14FF4C3
:1047E0001856FF27B8E74FF4405640F2FF17B3E7DB
:1047F0004FF4405640F27F17AEE74FF4185640F2A0
:104800007F17A9E74FF4405640F2BF17A4E74FF4D3
:10481000405640F25F179FE74FF4405640F29F1713
:104820009AE700BF50140020D0FB0100F0490200BD
:1048300000710200E02202000044025800FEFFFF67
:10484000B0AD0100C0D40100A0860100F8B5BFF3EF
:104850006F8FBD4AD2F8F43043F00203C2F8F4304F
:10486000BFF34F8F062302F58062D360936943F450
:1048700040439361BFF34F8F93699C04FCD5BFF312
:104880004F8FB14CD4F8E03043F00103C4F8E0306E
:10489000D4F8E03043F00203C4F8E030D4F8E0305C
:1048A00043F00403C4F8E030D4F8E03043F00803E8
:1048B000C4F8E030D4F8E03043F01003C4F8E0303E
:1048C000BFF34F8F01F020FA01F044FA01F04EFAE5
:1048D000236843F480332360BFF34F8F23461A6865
:1048E0009003FCD51A6842F480221A60BFF34F8F00
:1048F0009D6A40F28F11954C002045F00205924AC6
:104900009D629D6A25F47C759D629D6A45F0B005A7
:104910009D621D6B2C401C631C6B21431963196B3A
:1049200021F47E411963196B41F400711963196B0D
:1049300021F4FE011963196B41F4E0211963196B2D
:1049400021F0FE411963196B41F0807119635863BE
:10495000D96A41F00401D962D96A21F00201D96211
:10496000D96A41F4E021D962196841F08071196077
:1049700013689901FCD5136D734903F007031365A0
:10498000136D43F001031365536D43F440135365F6
:10499000136843F4805313600B689A04FCD5BFF38B
:1049A0004F8F6B490B680A4623F0370343F03203FD
:1049B0000B60136803F00703022BFAD1624B9A696C
:1049C00042F008029A619A6922F004029A619A6997
:1049D00022F002029A619A6922F001029A619A69B0
:1049E00022F400629A619A6922F480629A619A695B
:1049F00022F400729A619A6922F480729A619A692B
:104A000042F040029A619A6922F020029A619A6902
:104A100022F010029A61DA6942F04002DA61DA6942
:104A200022F02002DA61DA6922F01002DA61DA6932
:104A300022F48062DA61DA6922F40072DA61DA69FA
:104A400022F48072DA611A6A42F040021A621A6A2B
:104A500022F020021A621A6A22F010021A621A69FF
:104A600022F004021A611A6942F002021A611A69FC
:104A700042F001021A611A6902F03802182A06D0BF
:104A8000BFF34F8F1A6902F03802182AF8D12E4B63
:104A90000121304A1160D3F8DC2042F00052C3F803
:104AA000DC20D3F8DC20BFF34F8FD3F8DC2042F0BA
:104AB0008042C3F8DC20D3F8DC20BFF34F8FD3F85B
:104AC000DC2042F00042C3F8DC20D3F8DC20BFF346
:104AD0004F8FD3F8E02042F00052C3F8E020D3F823
:104AE000E030BFF34F8FBFF34F8FBFF36F8F1A4C80
:104AF0000023C4F85032BFF34F8FBFF36F8FBFF363
:104B00004F8FBFF36F8FC4F85032BFF34F8FBFF397
:104B10006F8F626942F400326261BFF34F8FBFF35F
:104B20006F8FC4F88430BFF34F8FD4F8803043F6D2
:104B3000E07EC3F3C906C3F34E33B7075D0105EA50
:104B40000E003946324609E00044025800FEFFFFDD
:104B5000002000520881005100ED00E041EA00030E
:104B6000013A01F14041C4F86032531CF6D1203DB6
:104B700015F1200FE3D1BFF34F8FBFF36F8F0023E9
:104B8000C4F88430BFF34F8FD4F8803043F6E07E12
:104B9000344CC3F3C906C3F34E33B7075D0105EACE
:104BA0000E003946324641EA0003013A01F1404124
:104BB000C4F86032531CF6D1203D15F1200FEED120
:104BC000BFF34F8F636943F480336361BFF34F8F4B
:104BD000BFF36F8F244B25495A6842F001025A6097
:104BE0005A6842F080025A605A6842F002025A60E3
:104BF0005A6842F004025A605A6842F480725A605D
:104C0000D1F8F43043F08053C1F8F430BFF34F8F44
:104C1000BFF34F8F0820FCF793FDFDF7A1FF4CF287
:104C20005030FFF783FDFFF737FBFEF751FB4FF4E2
:104C30009670FDF7E3FF01F0D1FB01F0F3FB00F00C
:104C400023FB01F0A9F96420FDF7D8FF01F010F86B
:104C500000F01EF900F00CF801F072F9BDE8F84020
:104C600001F08EB800ED00E00010005C0044025836
:104C7000BFF34F8F114B124A196821F003011960DD
:104C8000196821F440111960196821F44001196074
:104C9000196821F040711960196821F040611960AC
:104CA000196821F040511960196821F040411960DC
:104CB00019680A431A60BFF34F8F704700100258FB
:104CC00001005055684B984224D8684B5A6922F429
:104CD00080625A61BFF34F8F5A6922F400625A61B1
:104CE000BFF34F8F5A6942F480525A61BFF34F8F1E
:104CF0005A6922F400525A61BFF34F8F5A6942F445
:104D000080425A61BFF34F8F5A6922F400425A61C0
:104D1000BFF34F8F564B574A0344934224D8534B0B
:104D20005A6922F480625A61BFF34F8F5A6922F4A4
:104D300000625A61BFF34F8F5A6942F480525A6140
:104D4000BFF34F8F5A6942F400525A61BFF34F8F3D
:104D50005A6922F480425A61BFF34F8F5A6922F494
:104D600000425A61BFF34F8F434B444A034493427E
:104D700024D83E4B5A6922F480625A61BFF34F8FA8
:104D80005A6922F400625A61BFF34F8F5A6922F4C4
:104D900080525A61BFF34F8F5A6922F400525A6110
:104DA000BFF34F8F5A6942F480425A61BFF34F8F6D
:104DB0005A6942F400425A61BFF34F8F304B314A77
:104DC0000344934224D8294B5A6922F480625A61E1
:104DD000BFF34F8F5A6922F400625A61BFF34F8FBD
:104DE0005A6922F480525A61BFF34F8F5A6942F4D4
:104DF00000525A61BFF34F8F5A6922F480425A61C0
:104E0000BFF34F8F5A6922F400425A61BFF34F8FAC
:104E10001D4B1E4A0344934224D8144B5A6942F452
:104E200080625A61BFF34F8F5A6942F400625A613F
:104E3000BFF34F8F5A6922F480525A61BFF34F8FEC
:104E40005A6942F400525A61BFF34F8F5A6922F4F3
:104E500080425A61BFF34F8F5A6922F400425A616F
:104E6000BFF34F8F704700BFFF1AB7000010025802
:104E700000E548FF7FA81201803C36FEFF2C31017F
:104E8000800F05FD7F1D2C0400F2D8F87FA4BF071A
:104E900038B5174D18214FF4C620164C01F042FBCF
:104EA0002846122101F03EFB1721134801F03AFB7E
:104EB0001021032001F036FB0D21042001F032FB0C
:104EC000162140F2052001F02DFB0C4B182118464D
:104ED000A36101F027FB0A4B18211846236001F05B
:104EE00021FB284665601821BDE8384001F01ABB57
:104EF00001400100B8F300208219200086421F0003
:104F0000103E02002DE9F84F5C4B91465C4C9842F4
:104F10002DED028B03D810225A4B84E80C005A4B1B
:104F20005A4A0344934203D82022002384E80C0009
:104F3000574B584A0344934200F2948010260022B3
:104F4000F3EE008A9FED548A354613462660626070
:104F500005FB01F74FEA890B18444FF0000A67611F
:104F60005A4605FB00F5534621615146A560284687
:104F7000C4F80CA0494EBBFBF7F7A761FBF768FF2D
:104F8000804628035A462D0D5346A0FB0701C4F85E
:104F90001C8007FB0511FBF75BFF07EE907A4FEAD9
:104FA0000833B1EE007AF8EE676A07EE909A3A019C
:104FB00007FB1307F8EE677A9FED396A3D0BC7F3DD
:104FC0000B0766EE864A92B267EE877A07EE105AB2
:104FD000344B1621B8EEC75A07EE107AC7EEA85A1E
:104FE00013432562184673616762B8EEC77AF0EE24
:104FF000477AE5EE067A85EE266AC7EEA46A07EEE2
:10500000908AB8EE677AF1EE487AB0EE675A36EEDB
:10501000076AA5EE865A36EE877AE5EE877A84ED42
:105020000B5AC4ED0A7A01F07DFA236A1721E2696E
:105030001B0112049BB202F47C12134343F00203DF
:105040001846B36001F06EFA636A16211B019BB229
:10505000BDEC028B43F003031846F360BDE8F84F44
:1050600001F060BA6368256807EE903AB8EE678A87
:1050700007EE905AF8EE678A6AE700BF80C3C9015D
:1050800088F300200029DE07800F05FD7F1D2C041A
:1050900000F2D8F87FA4BF0700000000B8F300209A
:1050A0000000804505002800024B1821186801F017
:1050B00039BA00BFB8F30020F8B55A4A0446437A1B
:1050C000012B53690CBF43F0010323F0010353612B
:1050D0000068FFF7F7FD544B22681968914200F011
:1050E000858001251A60A2799979914201D0012524
:1050F0009A7122791979914201D001251A71627948
:105100005979914201D001255A71E279D9799142B8
:1051100001D00125DA71626A596A914201D00125F4
:105120005A62E27AD97A91424DD0DA7293F90A1032
:1051300094F90A2091425BD03F209A7200F006FD5C
:1051400094F82F0000F0D0FC002000F05FFD2068F4
:105150001821364B364A0344364D374F934294BF9D
:1051600020234FF404730544344E354ABD4298BFA2
:105170004023344DB04288BF4FF40F3213431846DA
:105180002B6001F0CFF994F90A30C3F13B031B0106
:1051900003F47C7343F0010068602279012A2DD06A
:1051A0006379012B36D0E379012B23D0182101F04C
:1051B000B9F9254A2068A36A11681844234ABDE852
:1051C000F840FFF79FBE94F90A2093F90A10914224
:1051D000B2D13F2000F0BAFC94F82F0000F084FC1C
:1051E000002000F013FD002DB1D1F8BD00257AE7B5
:1051F0003F20A3E740F4A0306860D7E72268B242BE
:1052000094BF41F2010042F20100184368606379E3
:10521000012BC8D140F4E0506860E379012BC5D17F
:10522000E8E700BF0010025830EB0020800F05FDBA
:105230007F1D2C0400F2D8F87FA4BF0780C3C901EA
:10524000003E0200B8F300208008002080B14F012A
:105250000B4B01205A8B014622F4FF7260F30711B9
:1052600022F0010210B45A83064C9976D87EB3F925
:105270001A304008238019465DF8044B01F0FAB853
:10528000D8F3002068F40020244B42F6A021244AE1
:10529000186820F030001860186820F0C00018600E
:1052A000186820F440701860186820F44060186096
:1052B000186820F440501860986820F0300098601A
:1052C000986820F0C0009860986820F4407098605A
:1052D000986820F440609860986820F44050986086
:1052E000986840F020009860986820F080009860EE
:1052F000986820F400709860986820F400609860C6
:10530000986820F400509860186801431960196A81
:105310000A431A62BFF34F8F704700BF0010025854
:1053200000666606F54B04204FF0060C59782DE90F
:10533000F0410126DA785F79022566F347020324FB
:10534000DE7965F347074FF0050E5D7A64F3470693
:105350006FF347019C7A60F3470559704FF01508C9
:10536000587B6EF30604D97B4FF0070E6CF34700B1
:10537000DA706EF347011A7C4FF0080C5F714FF042
:10538000090EDF7C6CF30602DE716EF347075E7D6B
:105390004FF00A0C5D724FF00B0EDD7D6CF347068B
:1053A0009C726EF347055C7E4FF00C0C58734FF007
:1053B0000D0ED87E6CF34704D9736EF34700597F06
:1053C0004FF00E0C1A744FF00F0EDA7F6CF347019A
:1053D000DF746EF347025E75DD7510265C7612256C
:1053E000D876132459771420DA774FF0160C93F8F7
:1053F00021104FF0180E93F82320192766F3470168
:1054000093F8256065F3470293F8275064F3470645
:1054100083F8211060F3470593F8294093F82B0097
:1054200093F82C1068F3470483F823206CF34700AB
:1054300093F82E206EF306014FF01B0C93F830E02A
:1054400067F3060283F8256093F832701C266CF32C
:10545000060E83F8275066F3060793F8365093F844
:1054600034604FF01D0C83F829401E246CF30606AF
:1054700083F82B0064F3060593F83B0093F839405A
:105480004FF0200C83F82C1021216CF3470483F893
:105490002E2061F3470093F83F2093F83D104FF022
:1054A000220C83F830E04FF0230E6CF3470183F8B1
:1054B00032706EF3470283F8346083F83650242646
:1054C00083F83940252583F83B00262483F83F20C4
:1054D000272083F83D104FF0280893F840104FF034
:1054E0002B0C93F842204FF02C0E66F3060193F834
:1054F000466065F3060293F84A5064F3060683F8A3
:10550000401060F3060593F84F4093F851002D27A3
:1055100093F8531068F3470483F842206CF3470074
:1055200093F855206EF347014FF02E0C93F857E097
:1055300067F3470283F8466093F859702F266CF39F
:10554000470E83F84A5066F3470793F85D5093F887
:105550005B604FF0300C83F84F4031246CF347060A
:1055600083F8510064F3470593F8610093F85F40B6
:105570004FF0320C83F8531033216CF3470483F857
:10558000552061F3470093F8652093F863104FF0BE
:10559000340C83F857E04FF0350E6CF3470183F875
:1055A00059706EF3470283F85B6083F85D503626CE
:1055B00083F85F40372583F86100382483F865203D
:1055C000392083F863104FF03A0893F867104FF0D2
:1055D0003B0C93F869204FF03C0E66F3470193F8BB
:1055E0006B6065F3470293F86D5064F3470683F8E8
:1055F000671060F3470593F86F4093F870003D27FC
:1056000093F8721068F3470483F869206CF306007E
:1056100093F874206EF306014FF03E0C93F876E099
:1056200067F3060283F86B6093F878703F266CF39B
:10563000060E83F86D5066F3060793F87D5093F8D5
:105640007B604FF0410C83F86F4046246CF34706B3
:1056500083F8700064F3470593F8800093F87F4067
:105660004FF0470C83F8721048216CF3470483F81D
:10567000742061F3060093F8842093F883104FF0B0
:10568000490C83F876E04FF04A0E6CF3470183F83B
:1056900078706EF3060283F87B6083F87F404FF0EA
:1056A0004B0883F880004FF04C0C83F883104FF0C8
:1056B0004D0E83F884204E2783F87D504F2693F8B3
:1056C000865093F8884093F88A0068F3060593F8AB
:1056D0008C106CF3060493F88E206EF3060067F3CB
:1056E000060183F8865066F3060283F8884083F843
:1056F0008A0083F88C1083F88E2001E0D8F3002014
:10570000BDE8F0812DE9F041DE4C40F2FF12DE4EA3
:105710004FF010082388FF27DC4D62F308031AB20C
:10572000C3F3462023801146328000F0A3FE1E20E2
:10573000FDF764FAB4F85C3006222B40A4F85C3024
:1057400084F85C2094F85D00B4F95C304008194698
:10575000338000F08FFE63880D222B40A2701B0A5D
:1057600043F00103E370B4F90230E0781946338066
:10577000400800F07FFEA388BF222B40227103F473
:105780007E431B0A43F001036371B4F9043060796E
:1057900019463380400800F06DFEE3886F222B40ED
:1057A000E380A271E079B4F90630400819463380ED
:1057B00000F060FE4FF49670FDF720FA2389022175
:1057C0004FF000022B4061F3C40223812272607A01
:1057D000B4F9083040081946338000F04BFEA38925
:1057E0004FF000022B40227303F47E431B0A6373C5
:1057F000B4F90C30607B19463380400800F03AFE63
:10580000E3894FF000022B40E381A273E07BB4F9FF
:105810000E3040081946338000F02CFEA38A08227F
:105820002B40A3822275607DB4F9143040081946DC
:10583000338000F01FFEA38B08222B40A383227726
:10584000607FB4F91C3040081946338000F012FE26
:10585000B4F850302B40A4F8503084F8508094F8BD
:105860005100B4F9503040081946338000F002FE70
:10587000638A50222B406382A274E07CB4F9123018
:1058800040081946338000F0F5FD638B0D214FF081
:105890000E022B4061F307126383A276E07EB4F917
:1058A0001A3040081946338000F0E4FDB4F85E3049
:1058B00001222B40A4F85E3084F85E2094F85F004B
:1058C000B4F95E30D0401946338000F0D3FDB4F80F
:1058D000603001222B40A4F8603084F8602094F8F6
:1058E0006100B4F96030D0401946338000F0C2FD49
:1058F000B4F8523033222B40A4F8523084F85220AE
:1059000094F85300B4F9523040081946338000F03F
:10591000B1FD94F8543094F8552063F07F0342F0C1
:10592000010268F3050384F85520D0B284F854309E
:10593000B4F9543040081946338000F09BFD94F8C8
:10594000563094F8572063F07F0342F0010268F369
:10595000050384F85720D0B284F85630B4F9563095
:1059600040081946338000F085FDB4F87A300421F0
:1059700011222B40A4F87A3084F87A10B4F87A30E7
:1059800062F308131AB2C3F34620A4F87A30114622
:10599000328000F06FFDB4F862306FF07F022B4070
:1059A00084F8622003F47E431B0A43F0010384F869
:1059B0006330B4F9623094F86300194633804008CC
:1059C00000F058FDB4F864306FF07F022B4084F88B
:1059D000642003F47E431B0A43F0010384F865301E
:1059E000B4F9643094F8650019463380400800F03B
:1059F00041FDB4F868306FF07F022B4084F86820D6
:105A000003F47E431B0A43F0010384F86930B4F9C0
:105A1000683094F8690019463380400800F02AFD88
:105A2000B4F866306FF07F022B4084F8662003F4F0
:105A30007E431B0A43F0010384F86730B4F96630F3
:105A400094F8670019463380400800F013FDE38A9C
:105A5000A7752B401B0A43F00103E375B4F9163018
:105A6000E07D19463380400800F004FD238B277643
:105A70002B401B0A43F001036376B4F91830607EB3
:105A800006E000BFD8F3002068F4002000FEFFFF0E
:105A900019463380400800F0EDFCE38BA7772B40DC
:105AA0001B0A43F00103E377B4F91E30E07F194687
:105AB0003380400800F0DEFC238C84F820701D4009
:105AC0002D0A45F0010584F82150E8B2B4F92030E0
:105AD00040081946338000F0CDFC4FF48C70BDE8CF
